S0130000686F74437570626F6172642E7372656396
S113000033C0000041C000003FC000003DC00000FC
S11300103BC0000039C0000037C0000035C00000FC
S113002033C0000031C000002FC000002DC000000C
S11300302BC0000029C0000027C0000025C000001C
S113004023C0000021C000001FC000001DC000002C
S11300501BC0000019C0000017C0000015C000003C
S113006013C0000011C0000011241FBECFEFD8E060
S1130070DEBFCDBF21E0A0E0B1E001C01D92A03001
S1130080B207E1F71DD07BC0BBCF84B58F7784BDA9
S113009084B58F7D84BD089584B5806884BD84B59E
S11300A0806284BD0895569A559A8FE787BD8FEB79
S11300B088BD84B5836084BD85B5856085BD08959C
S11300C0CF93DF93CDB7DEB767970FB6F894DEBF53
S11300D00FBECDBF1F8A1E8A259A249823982C9878
S11300E02B98E1DF2D9A11E01F8A1E8A8E899F8941
S11300F0459730F51C990CC0CFDF2D98EE89FF8908
S113010081E090E08C0F9D1FE80FF91F108309C058
S1130110EE89FF8981E090E08C0F9D1FE80FF91FA5
S113012010828FE99FE00197F1F700C000008E89EB
S11301309F8901969F8B8E8B8E899F894597D0F2DC
S11301401B99D2CF1F8A1E8A8E899F89459760F694
S1130150EE89FF8981E090E08C0F9D1FE80FF91F65
S11301608081811102C091DF2D9A8E899F89019629
S11301709F8B8E8B8E899F89459750F3B5CFF894CA
S1050180FFCFAB
S9030000FC
